:020000040800F2
:1000000000000220510400083504000837040008ED
:10001000390400083B0400083D040008000000000B
:100020000000000000000000000000003F04000885
:1000300041040008000000004304000845040008D3
:10004000A1040008A1040008A1040008A1040008FC
:10005000A1040008A1040008A1040008A1040008EC
:10006000A1040008A1040008A1040008A1040008DC
:10007000A1040008A1040008A1040008A1040008CC
:10008000A1040008A1040008A1040008A1040008BC
:10009000A1040008A1040008A1040008A1040008AC
:1000A000A1040008A1040008A1040008A10400089C
:1000B000A1040008A1040008A1040008A10400088C
:1000C000A1040008A1040008A1040008A10400087C
:1000D000A1040008A1040008A1040008A10400086C
:1000E000A1040008A1040008A1040008A10400085C
:1000F000A1040008A1040008A1040008A10400084C
:10010000A1040008A1040008A1040008A10400083B
:10011000A1040008A1040008A1040008A10400082B
:10012000A1040008A1040008A1040008A10400081B
:10013000A1040008A1040008A1040008A10400080B
:10014000A1040008A1040008A1040008A1040008FB
:10015000A1040008A1040008A1040008A1040008EB
:10016000A1040008A1040008A1040008A1040008DB
:10017000A1040008A1040008A10400080000000078
:08018000A1040008A10400081D
:1001880053B94AB9002908BF00281CBF4FF0FF31F6
:100198004FF0FF3000F00CB8ADF1080C6DE904CE5B
:1001A80000F038FEDDF804E0DDE9022304B0704712
:1001B800704700BF0348044B834202D0034B03B18E
:1001C80018477047100000201000002000000000B1
:1001D8000548064B1B1AD90F01EBA301491002D0A1
:1001E800034B03B11847704710000020100000208F
:1001F8000000000010B5064C237843B9FFF7DAFF7A
:10020800044B13B10448AFF300800123237010BDE1
:1002180010000020000000009C12000808B5054BE3
:100228001BB105490548AFF30080BDE80840FFF75A
:10023800CFBF00BF00000000140000209C1200087F
:10024800F0B589B0002403940494059406940794A7
:1002580000941F4B1A6B42F020021A631A6B02F0CB
:1002680020020092009A01941A6B42F080021A63ED
:100278001A6B02F080020192019A02941A6B42F002
:1002880004021A631B6B03F004030293029B114FD1
:100298002246FF21384600F0B7FA0F4D2246CF21FB
:1002A800284600F0B1FAFF2303930126049605942B
:1002B800069403A9384600F0ADF9CF2303930496BA
:1002C8000594069403A9284600F0A4F909B0F0BDE6
:1002D80000380240001402400008024010B5074CE4
:1002E80001222178064800F08FFA23780133DBB227
:1002F800237003F00703237010BD00BF2E000020F9
:100308000014024038B5104C2288104D02F001024A
:100318000321284600F078FA2288C2F3400204211B
:10032800284600F071FA2288C2F387020521284680
:1003380000F06AFA2388072B04D001339BB2024AE3
:10034800138038BD0023FAE72C0000200008024083
:1003580072B6FEE700B595B03022002108A800F07B
:10036800B7FE002303930493059306930793019321
:10037800184A116C41F080511164126C02F08052DD
:100388000192019A0293144A116841F48041116064
:10039800126802F480420292029A02220892012212
:1003A8000B9210220C920E9308A800F033FA68B949
:1003B8000F2303930021049105910691079103A847
:1003C80000F078FC20B915B05DF804FBFFF7C0FF1A
:1003D800FFF7BEFF003802400070004008B500F08B
:1003E80083F8FFF7B7FFFFF72BFFFFF777FFFFF75C
:1003F80089FFFAE782B0002100910B4B5A6C42F456
:1004080080425A645A6C02F480420092009A019128
:100418001A6C42F080521A641B6C03F080530193EB
:10042800019B02B0704700BF00380240FEE7FEE7BC
:10043800FEE7FEE7FEE770477047704708B500F033
:100448006DF808BD70470000DFF834D0FFF7FAFFF9
:100458000C480D490D4A002302E0D458C450043317
:10046800C4188C42F9D30A4A0A4C002301E01360ED
:100478000432A242FBD300F07DFEFFF7AFFF7047C6
:10048800000002200000002010000020D812000800
:1004980010000020CC010020FEE7000010B5044643
:1004A8000E4B1A784FF47A73B3FBF2F30C4A1068C8
:1004B800B0FBF3F000F09AF868B90F2C01D90120CD
:1004C8000AE0002221464FF0FF3000F07FF8054B8C
:1004D8001C60002000E0012010BD00BF04000020C7
:1004E800000000200800002008B50B4B1A6842F4F1
:1004F80000721A601A6842F480621A601A6842F43C
:1005080080721A60032000F04FF80F20FFF7C6FF33
:10051800FFF770FF002008BD003C0240034A116845
:10052800034B1B780B441360704700BF300000205A
:1005380004000020014B1868704700BF30000020FD
:10054800002808DB0901C9B200F1604000F56140EC
:1005580080F80013704700F00F000901C9B2014B81
:100568001954704714ED00E000B500F00700C0F121
:10057800070CBCF1040F28BF4FF0040C031D062B19
:100588000FD9C31E4FF0FF3E0EFA0CF021EA00010E
:1005980099400EFA03FE22EA0E0241EA02005DF8D3
:1005A80004FB0023EEE70000074AD36823F4E06366
:1005B8001B041B0C000200F4E060034343F0BF631C
:1005C80043F40033D360704700ED00E010B50446F3
:1005D800054BD868C0F30220FFF7C6FF0146204646
:1005E800FFF7AEFF10BD00BF00ED00E00138B0F12D
:1005F800807F0BD24FF0E0235861054AF02182F842
:1006080023100020986107221A6170470120704763
:1006180000ED00E000230F2B00F2EC8030B583B032
:1006280068E085684FEA430E032404FA0EF425EACD
:100638000405CC6804FA0EF42C438460446824EA68
:1006480002044A68C2F300129A40224342605FE003
:10065800DC08083450F8242003F00705AD004FF0FB
:100668000F0E0EFA05FE22EA0E0E0A69AA4042EAA9
:100678000E0240F824205FE0072200E0002202FA80
:100688000EF22A4302345C4D45F824205B4A9468F4
:100698006FEA0C0224EA0C05D1F804E01EF4801F6E
:1006A80001D04CEA0405554CA560E46802EA04054B
:1006B800D1F804E01EF4001F01D04CEA04054F4CA9
:1006C800E560646802EA0405D1F804E01EF4003F1E
:1006D80001D04CEA0405494C6560246822404D6805
:1006E80015F4803F01D04CEA0402444C22600133E7
:1006F8000F2B7DD801229A400C6804EA020C32EADA
:100708000404F4D14C6804F00304013C012C88D99A
:100718004A6802F00302032A09D0C4685D00032274
:10072800AA4024EA02048A68AA402243C2604A68AE
:1007380002F00302022A8BD004684FEA430E032218
:1007480002FA0EF224EA02044A6802F0030202FAEC
:100758000EF2224302604A6812F4403FC7D00022DA
:100768000192274A546C44F480445464526C02F455
:1007780080420192019A9C08A51C1F4A52F82550F4
:1007880003F0030E4FEA8E0E0F2202FA0EF225EA4C
:1007980002051C4A90423FF471AF02F58062904214
:1007A8001AD002F58062904218D002F58062904219
:1007B80016D002F58062904214D002F58062904211
:1007C80012D002F58062904210D002F58062904209
:1007D8003FF452AF082252E7012250E702224EE7C7
:1007E80003224CE704224AE7052248E7062246E7A7
:1007F80003B030BD704700BF00380140003C0140E5
:1008080000380240000002400AB1816170470904C3
:1008180081617047002800F0E08170B582B004461D
:10082800036813F0010F3BD09F4B9B6803F00C0348
:10083800042B2CD09C4B9B6803F00C03082B21D075
:100848006368B3F5803F4FD0B3F5A02F52D0964BD5
:100858001A6822F480321A601A6822F480221A6018
:100868006368002B50D0FFF765FE05468E4B1B686A
:1008780013F4003F14D1FFF75DFE401B6428F5D93F
:100888000320B1E1884B5B6813F4800FD8D0864B06
:100898001B6813F4003F03D06368002B00F09F81AE
:1008A800236813F0020F54D07F4B9B6813F00C0F92
:1008B8003ED07D4B9B6803F00C03082B33D0E368D4
:1008C800002B68D0794B01221A60FFF733FE0546EA
:1008D800754B1B6813F0020F54D1FFF72BFE401B1A
:1008E8000228F5D903207FE16F4A136843F4803367
:1008F8001360B5E76C4B1A6842F480221A601A68D4
:1009080042F480321A60ABE7FFF714FE0546664BE7
:100918001B6813F4003FC3D0FFF70CFE401B64288C
:10092800F5D9032060E1604B5B6813F4800FC6D1F2
:100938005D4B1B6813F0020F03D0E368012B40F0F6
:100948005081594A136823F0F803216943EAC10327
:100958001360236813F0080F42D063696BB3534BDD
:100968000122C3F8802EFFF7E5FD05464E4B5B6F6D
:1009780013F0020F34D1FFF7DDFD401B0228F5D933
:10098800032031E1484A136823F0F803216943EA58
:10099800C1031360DDE7454B00221A60FFF7CAFD6B
:1009A8000546414B1B6813F0020FD2D0FFF7C2FD7A
:1009B800401B0228F5D9032016E13C4B0022C3F85E
:1009C800802EFFF7B7FD0546374B5B6F13F0020F1C
:1009D80006D0FFF7AFFD401B0228F5D9032003E13D
:1009E800236813F0040F77D02F4B1B6C13F0805F34
:1009F80033D1002301932C4B1A6C42F080521A64B5
:100A08001B6C03F080530193019B0125284B1B6845
:100A180013F4807F23D0A368012B34D0052B38D062
:100A2800214B1A6F22F001021A671A6F22F0040292
:100A38001A67A368002B3DD0FFF77CFD06461A4BCA
:100A48001B6F13F0020F46D1FFF774FD801B41F2B4
:100A580088339842F3D90320C6E00025D6E7144A24
:100A6800136843F480731360FFF764FD0646104B68
:100A78001B6813F4807FCED1FFF75CFD801B022832
:100A8800F5D90320B0E0084A136F43F00103136758
:100A9800CFE7054B1A6F42F004021A671A6F42F04B
:100AA80001021A67C5E700BF00380240000047424C
:100AB80000700040FFF73EFD0646524B1B6F13F0D7
:100AC800020F08D0FFF736FD801B41F288339842A9
:100AD800F3D9032088E0EDB9A369002B00F08380E7
:100AE800484A926802F00C02082A51D0022B17D00B
:100AF800454B00221A66FFF71DFD0446414B1B6853
:100B080013F0007F42D0FFF715FD001B0228F5D92E
:100B1800032069E03B4A136C23F080531364DBE73E
:100B2800394B00221A66FFF705FD0546354B1B6851
:100B380013F0007F06D0FFF7FDFC401B0228F5D913
:100B4800032051E0E369226A1343626A43EA82138D
:100B5800A26A5208013A43EA0243E26A43EA02639C
:100B6800284A5360284B01221A66FFF7E3FC044623
:100B7800244B1B6813F0007F06D1FFF7DBFC001B3A
:100B88000228F5D903202FE000202DE000202BE0DB
:100B9800012B2BD01B4B5B6803F48001E269914267
:100BA80026D103F03F02216A8A4223D1616A47F6BF
:100BB800C0721A40B2EB811F1ED103F44031A26A01
:100BC8005208013AB1EB024F18D103F07063E26AA0
:100BD800B3EB026F14D1002006E00120704701201A
:100BE80002E0012000E0002002B070BD0120FBE718
:100BF8000120F9E70120F7E70120F5E70120F3E7F5
:100C08000120F1E7003802400000474208B5264BB2
:100C18009B6803F00C03042B41D0082B41D1224BD5
:100C28005A6802F03F025B6813F4800F12D01E4B23
:100C38005968C1F388111D480023A1FB0001FFF783
:100C48009FFA194B5B68C3F3014301335B00B0FBA8
:100C5800F3F008BD144B5868C0F388104FEA401CE5
:100C6800BCEB000C6EEB0E0E4FEA8E1343EA9C634E
:100C78004FEA8C11B1EB0C0163EB0E03DB0043EA86
:100C88005173C90011EB000C43F1000399020023D2
:100C98004FEA8C2041EA9C51FFF772FAD1E70348EA
:100CA800D7E70348D5E700BF0038024040787D0108
:100CB8000024F400002800F09B8070B50D4604461F
:100CC8004F4B1B6803F007038B4208D2CBB24C4A48
:100CD8001370136803F007038B4240F08B8023687E
:100CE80013F0020F17D013F0040F04D0454A93688D
:100CF80043F4E0539360236813F0080F04D0414A8B
:100D0800936843F4604393603E4A936823F0F0038A
:100D1800A1680B439360236813F0010F32D0636816
:100D2800012B21D09A1E012A25D9364A126812F0C1
:100D3800020F61D033498A6822F0030213438B60A3
:100D4800FFF7F8FB06462F4B9B6803F00C0362681D
:100D5800B3EB820F16D0FFF7EDFB801B41F288330F
:100D68009842F0D9032042E0264A126812F4003F64
:100D7800E0D101203BE0234A126812F0007FD9D16C
:100D8800012034E01E4B1B6803F00703AB4207D970
:100D9800EAB21B4B1A701B6803F00703AB422DD154
:100DA800236813F0040F06D0164A936823F4E0531F
:100DB800E1680B439360236813F0080F07D0114ACA
:100DC800936823F46043216943EAC1039360FFF702
:100DD8001DFF0C4B9B68C3F303130B4AD35CD8402D
:100DE8000A4B18600A4B1868FFF758FB002070BDC3
:100DF800012070470120FAE70120F8E70120F6E713
:100E0800003C024000380240B412000800000020F4
:100E1800080000202DE9F047089D0E4604460F46BD
:100E2800002B4AD194468C45B2FA82F260D942B17D
:100E3800C2F12003974020FA03F30CFA02FC1F4387
:100E480094404FEA1C4E1FFA8CF6B7FBFEF1230CB8
:100E58000EFB117743EA074301FB06F098420AD9D3
:100E68001CEB030301F1FF3780F01581984240F233
:100E78001281023963441B1AA4B2B3FBFEF00EFBC5
:100E8800103344EA034400FB06F6A6420AD91CEBD9
:100E9800040400F1FF3380F00081A64240F2FD8097
:100EA8006444023840EA0140A41B00211DB1D4402B
:100EB8000023C5E90043BDE8F0878B4205D90DB191
:100EC800C5E9000100210846F5E7B3FA83F10029D6
:100ED80046D1B34202D3824200F2F580841A66EB0F
:100EE800030201201746002DE5D0C5E90047E2E7D7
:100EF800002A40F09380A1EB0C034FEA1C471FFA2D
:100F08008CFE0121B3FBF7F607FB1630230C43EAEE
:100F180000430EFB06F0984208D91CEB030306F1C8
:100F2800FF3802D2984200F2D08046461B1AA4B27B
:100F3800B3FBF7F007FB103344EA03440EFB00FE53
:100F4800A64508D91CEB040400F1FF3302D2A645DC
:100F580000F2B6801846A4EB0E0440EA0640A5E766
:100F6800C1F120078B4022FA07FC4CEA030C06FA71
:100F780001FE20FA07F426FA07F344EA0E0400FA01
:100F880001F84FEA1C404FEA1449B3FBF0FE1FFA80
:100F98008CF600FB1E3349EA03430EFB06F999451C
:100FA80002FA01F20BD91CEB03030EF1FF3A80F0B1
:100FB8008580994540F28280AEF1020E6344A3EB2E
:100FC8000909A4B2B9FBF0F300FB139944EA0944F8
:100FD80003FB06F6A64208D91CEB040403F1FF3014
:100FE80068D2A64266D9023B644443EA0E40A41B79
:100FF800A0FB02E6B4427346B14652D34FD05DB16E
:10100800B8EB030264EB090404FA07F722FA01F3C8
:101018001F43CC40C5E9007400214CE7C2F1200110
:1010280020FA01F30CFA02FC26FA01F19640334348
:101038004FEA1C471FFA8CFEB1FBF7F007FB1016AE
:10104800190C41EA064100FB0EF68E4204FA02F43E
:1010580008D91CEB010100F1FF382DD28E422BD9A3
:1010680002386144891B9BB2B1FBF7F607FB1611E6
:1010780043EA014306FB0EF1994208D91CEB03032E
:1010880006F1FF3814D2994212D9023E63445B1A22
:1010980046EA004136E73946EDE6184602E7F045EC
:1010A800ADD2BEEB020366EB0C060138B146A6E7EB
:1010B8004646ECE7034698E74046D3E7D6467EE740
:1010C8006444023847E708460DE7023E63442DE7CB
:1010D800830730B547D0541E002A3ED0CAB2034613
:1010E80001E0013C39D303F8012B9D07F9D1032C0A
:1010F8002CD9CDB205EB05250F2C05EB054535D9C7
:10110800A4F1100222F00F0C03F1100EE6444FEA8E
:10111800121C1A46C2E90055C2E90255103272453E
:10112800F8D10CF1010214F00C0F03EB021204F0D9
:101138000F0C13D0ACF1040323F00303043313445E
:1011480042F8045B9342FBD10CF003042CB1C9B202
:101158001C4403F8011BA342FBD130BD644613466F
:10116800002CF4D1F9E703461446C0E71A46A44612
:10117800E0E700BF70B50F4B0F4DAB42A3EB050680
:1011880007D0B610002455F8043B01349847A6420E
:10119800F9D800F07FF8094D094B5E1BAB424FEAC6
:1011A800A60606D0002455F8043B01349847A64209
:1011B800F9D870BDCC120008CC120008CC12000877
:1011C800D4120008704700BF704700BF024B13B12C
:1011D800024800F005B8704700000000F51100084B
:1011E800002301461A46184600F014B838B5074DD2
:1011F800074C2C1BA41005D0013C55F8043D98471A
:10120800002CF9D1BDE8384000F04AB8D8120008DF
:10121800D41200082DE9F8431B4D06462868984665
:101228000F469146FFF7CEFF184B1C681CB3286881
:1012380065681F2D22DC4EB96B1C0235636044F8CB
:101248002570FFF7C1FF0020BDE8F88304EB850196
:101258000123C1F88890D4F88821AB401A43022EA4
:10126800C4F88821C1F80881E6D1D4F88C211A4342
:10127800C4F88C21E0E7064C1C60D8E7FFF7A4FF10
:101288004FF0FF30E0E700BF0C00002038000020DE
:101298003C000020F8B500BFF8BC08BC9E4670476B
:0C12A800F8B500BFF8BC08BC9E467047BB
:1012B4000000000000000000010203040607080902
:0812C40058FBFF7F0100000050
:0812CC00D511000825020008FD
:0412D400FD01000810
:1012D8000024F40001000000100000003400002089
:04000005080004519A
:00000001FF
